S016000050695F43616C63756C6174696F6E2E7372656387
S11300000C94A5010C94CE010C94CE010C94CE0159
S11300100C94CE010C94CE010C94CE010C94CE0120
S11300200C94CE010C94CE010C94CE010C94CE0110
S11300300C94CE010C94CE010C949D060C94CE012C
S11300400C94CE010C94CE010C94CE010C94CE01F0
S11300500C94CE010C94CE010C94CE010C94CE01E0
S11300600C94CE010C94CE010C94CE010C94CE01D0
S11300700C94CE010C94CE010C94CE010C94CE01C0
S11300800C94CE010C94CE010C94CE010C94CE01B0
S11300900C94CE010C94CE010C94CE010C94CE01A0
S11300A00C94CE010C94CE010C94CE010C94CE0190
S11300B00C94CE010C94CE010C94CE010C94CE0180
S11300C00C94CE010C94CE010C94CE010C94CE0170
S11300D00C94CE010C94CE010C94CE010C94CE0160
S11300E00C94CE010C94CE010C94CE010C94CE0150
S11300F00C94CE010C94CE010C94CE010C94CE0140
S11301000C94CE010C94CE010C94CE010C94CE012F
S11301100C94CE010C94CE010C94CE010C94CE011F
S11301200C94CE010C94CE010C94CE010C94CE010F
S11301300C94CE010C94CE010C94CE010C94CE01FF
S11301400C94CE010C94CE010C94CE010C94CE01EF
S11301500C94CE010C94CE010C94CE010C94CE01DF
S11301600C94CE010C94CE010C94CE010C94CE01CF
S11301700C94CE010C94CE010C94CE010C94CE01BF
S11301800C94CE010C94CE010C94CE010C94CE01AF
S11301900C94CE010C94CE010C94CE010C94CE019F
S11301A00C94CE010C94CE010C94CE010C94CE018F
S11301B00C94AA160C94CE010C94CE010C94CE018E
S11301C00C94CE010C94CE010C94CE010C94CE016F
S11301D00C94CE010C94CE010C94CE010C94CE015F
S11301E00C94CE010C94CE010C94CE010C94CE014F
S11301F00C94CE010C94CE010C94CE01C412C41202
S1130200C4121113F9120E13C412C4121113F912E9
S11302100C94CA130C9436150C9449180C941113AD
S11302200C9495130C9488040C9408120C940B14DD
S11302300C94F9120C940E130C94CD140C94C41257
S11302400C94A0130C94B20A6E616E00696E660081
S113025000407A10F35A00A0724E18090010A5D479
S1130260E80000E87648170000E40B54020000CAD6
S11302709A3B000000E1F50500008096980000001C
S113028040420F000000A08601000000102700007B
S11302900000E803000000006400000000000A0001
S11302A0000000000100000000002C76D888DC6704
S11302B04F0823DFC1DFAE59E1B1B796E5E3E4535C
S11302C0C63AE651997696E8E6C28426EB898C9B79
S11302D062ED407C6FFCEFBC9C9F40F2BAA56FA519
S11302E0F490055A2AF75C936B6CF9676DC11BFC9B
S11302F0E0E40D47FEF520E6B500D0ED902E0300B6
S1130300943577050080841E080000204E0A000002
S113031000C80C333333330F986E12831141EF8DC1
S11303202114893BE65516CFFEE6DB18D1844B3801
S11303301BF77C1D901DA4BBE424203284725E2232
S11303408100C9F124ECA1E53D2711241FBECFEFA4
S1130350CDBFDFE3DEBF00E00CBFE7E6FDE28AEAE3
S113036090E48193E030F907E0F310E2A0E0B0E21A
S1130370E2E8FCE400E00BBF02C007900D92AA394A
S1130380B107D9F72DE2AAE9B0E201C01D92A73660
S1130390B207E1F70E941D160C943F260C9400004E
S11303A0E0EAF6E080E1828380E2828380E4828373
S11303B080E8828308958091A80684FD0EC0809110
S11303C0A0209091A12080362AEE9207E8F40196AD
S11303D08093A0209093A12017C08091A020909199
S11303E0A1208B30910548F0C39718F01092222D6C
S11303F007C081E08093222D03C082E08093222DE8
S11304001092A0201092A1208091A80685FD0EC014
S113041080919E2090919F2080362AEE9207E8F4E6
S1130420019680939E2090939F2017C080919E20D8
S113043090919F208B30910548F0C39718F010924B
S1130440232D07C081E08093232D03C082E0809395
S1130450232D10929E2010929F208091A80686FD45
S11304600EC080919C2090919D2080362AEE9207A8
S1130470E8F4019680939C2090939D2017C080916E
S11304809C2090919D208B30910548F0C39718F0E3
S11304901092242D07C081E08093242D03C082E0B4
S11304A08093242D10929C2010929D208091A80668
S11304B0882374F080919A2090919B2080362AEEB4
S11304C09207E8F4019680939A2090939B200895D4
S11304D080919A2090919B208B30910548F0C3978E
S11304E018F01092252D07C081E08093252D03C0BC
S11304F082E08093252D10929A2010929B200895DB
S1130500813049F028F0823049F0833051F00CC03A
S11305108091222D08958091232D08958091242D7A
S113052008958091252D089582E008950F93CF9327
S1130530DF931F92CDB7DEB72FB72983F8941BBE84
S1130540FC0108ED04BF608389818FBF0F90DF91A8
S1130550CF910F910895611102C090E001C090E223
S1130560842B892B8093520008956F71862B80937E
S113057055000895E0E5F0E09081282F209592231E
S11305809083908189230895682B81E490E00E94F0
S1130590960208950F931F93CF93C82F00E410E0A1
S11305A0F8016081687F682B80E490E00E949602E5
S11305B0F80180818C23CF911F910F910895FC0144
S11305C09081907F692B60830895FC019181987FCD
S11305D0692B61830895FC0196819C7F692B668356
S11305E00895000088ED84BF81E080937900089528
S11305F00E94F1020895CF93DF9380E190E00E947E
S11306009804EC01009741F0FC01119211921192AF
S11306101192CF010E94BF04CE01DF91CF910895C2
S11306202F923F924F925F926F927F928F929F92FE
S1130630AF92BF92CF92DF92EF92FF920F931F93EC
S1130640CF93DF93EC014A015B01622E702E0E946E
S1130650590C288039804A805B8001110DC081E0EB
S1130660B201A101482159216A217B21452B462B46
S1130670472B79F480E00DC081E0B201A10148214B
S113068059216A217B21481559056A057B0509F022
S113069080E0882381F0662009F470C080949094EF
S11306A0A094B09482209320A420B52088829982BB
S11306B0AA82BB8263C0C114D104E104F10409F429
S11306C05DC0662029F040E050E060E071E003C0C6
S11306D040E050E0BA0171107460482959296A2930
S11306E07B2997018601CE0104960E94E20E0E94A6
S11306F0440D811102C00E941D060E941F1091FD2D
S113070039C0F091A200FF93F87FF093A2006881B2
S113071079818A819B8171100DC021E0750164018A
S1130720C622D722E822F922CD28CE28CF2879F470
S113073020E00DC021E075016401C622D722E82221
S1130740F922C814D904EA04FB0409F020E02223A6
S113075071F0662061F080949094A094B094862205
S11307609722A822B92288829982AA82BB82FF9109
S1130770F093A2001B012C01552402C00E94440DD9
S1130780C201B101DF91CF911F910F91FF90EF90C2
S1130790DF90CF90BF90AF909F908F907F906F909D
S11307A05F904F903F902F9008950F931F93F09177
S11307B0A200FF93F87FF093A200FC010081118155
S11307C02281338140955095609570954023512343
S11307D0622373234083518362837383FF91F09375
S11307E0A200C901B8011F910F9108954F925F9221
S11307F06F927F92AF92BF92CF92DF92EF92FF926D
S11308000F931F93CF93DF93EC016A017B018C015B
S1130810095F1F4F0E94590CEB85FC8588819981E3
S1130820AA81BB81C82AD92AEA2AFB2AC882D9828A
S1130830EA82FB820E171F0709F442C0C12CD12C97
S11308407601A480B58080819181A281B381AC01BD
S1130850BD017727B2FD0FC0488059806A807B8034
S1130860442255226622772221E04528462847283B
S113087089F420E00FC0488059806A807B8044223C
S113088055226622772221E044165506660677062D
S113089009F020E0222371F0B0FF04C0C42AD52A55
S11308A0E62AF72A488159816A817B817260CF01E7
S11308B00E946A0FEA2DFB2D0E171F0711F603C0C5
S11308C0C12CD12C7601C094D094E094F09488810A
S11308D09981AA81BB81C822D922EA22FB22C8823B
S11308E0D982EA82FB820E94440D688179818A81DF
S11308F09B81DF91CF911F910F91FF90EF90DF903B
S1130900CF90BF90AF907F906F905F904F9008957D
S11309100E94F60308950F931F9389019A01AB0176
S1130920BC0188E894E00E9437131F910F91089549
S1130930CF93DF93EC010E94590C2091A2203091B7
S1130940A320C9018C0F9D1F883B4BE0940758F4EA
S11309502817390758F4E901CC55DF4D8093A220BC
S11309609093A32005C0C0E0D0E002C0C0E0D0E076
S11309700E94440DCE01DF91CF9108950895FC01AA
S11309800396818392834FEF5FEFBA0143835483CD
S11309906583768387839087818792871082089501
S11309A0FC01128613860895CF93DF939C01FB010B
S11309B0DC011196CD91DC911297C483D5838E818D
S11309C09F81868397838E819F81DC0114966D932A
S11309D07C9315976E837F8322873387F901808107
S11309E08F5F8083DF91CF9108950F931F93CF93EF
S11309F0DF93EB01088119812A813B810F3F4FEF7F
S1130A0014072407340721F4FC01A185B28511C021
S1130A10DC01139601C0DF011496ED91FC9115974A
S1130A2040815181628173810417150726073707B6
S1130A3090F71496ED91FC911597EC83FD83C68392
S1130A40D783AE83BF831496CD93DC9315978A879F
S1130A509B87FC0120812F5F2083DF91CF911F9121
S1130A600F910895CF93DF93FC01A285B385C481D0
S1130A70D581868197818E839F83C681D781848126
S1130A8095818C839D8311968D919C911297E81783
S1130A90F90731F48681978111968D939C9312976F
S1130AA0128613868C9181508C938C91DF91CF9117
S1130AB00895E0EAF0E082819281987F928308951C
S1130AC0CF92DF92EF92FF9231E1FC0130833197B4
S1130AD022E220833197A3E3A0836B01E12CF12C64
S1130AE0319760833197D0823197E082319761E307
S1130AF06083319760E86083319767E8608331975A
S1130B00108231971082319762E06083319763E0FD
S1130B106083319764E06083319765E06083319747
S1130B2066E06083319767E06083319768E06083B3
S1130B30319769E06083319760E160833197308356
S1130B40319732E13083319733E13083319734E1A7
S1130B503083319735E13083319736E130833197F3
S1130B6037E13083319738E13083319739E130838D
S1130B70319730E23083319731E2308331972083EB
S1130B80319723E220836A01319740833197D082E1
S1130B90319726E22083319727E22083319728E298
S1130BA02083319729E22083319720E3208388979B
S1130BB0FF90EF90DF90CF90089583EF91E08093C2
S1130BC026089093270865E080E098E00E94DF0201
S1130BD061E080E098E00E94EB02A091CA2CB09101
S1130BE0CB2C0D900DBE0D900EBEEF91DF91CF91E9
S1130BF0BF91AF919F918F917F916F915F914F9131
S1130C003F912F911F910F91FF90EF90DF90CF9024
S1130C10BF90AF909F908F907F906F905F904F9018
S1130C203F902F901F900F90FF91F093A200FF919F
S1130C30FFBFFF91089581E00895FF93FFB7FF93ED
S1130C40F091A200FF93F87FF093A2000F921F92FD
S1130C5011242F923F924F925F926F927F928F92C4
S1130C609F92AF92BF92CF92DF92EF92FF920F9337
S1130C701F932F933F934F935F936F937F938F9320
S1130C809F93AF93BF93CF93DF93EF93A091CA2C1D
S1130C90B091CB2C0DB60D920EB60D920E94E20DC2
S1130CA0A091CA2CB091CB2C0D900DBE0D900EBE10
S1130CB0EF91DF91CF91BF91AF919F918F917F91F0
S1130CC06F915F914F913F912F911F910F91FF90E1
S1130CD0EF90DF90CF90BF90AF909F908F907F90D8
S1130CE06F905F904F903F902F901F900F90FF91C7
S1130CF0F093A200FF91FFBFFF910895CF939091CD
S1130D00262D892B8093262D9091A000913041F0BF
S1130D109091A000923021F09091A000943059F469
S1130D20882349F00E945905C82F1092262D0E944D
S1130D30E20DC093A200CF910895FF93FFB7FF93F4
S1130D40F091A200FF93F87FF093A2000F921F92FC
S1130D5011242F923F924F925F926F927F928F92C3
S1130D609F92AF92BF92CF92DF92EF92FF920F9336
S1130D701F932F933F934F935F936F937F938F931F
S1130D809F93AF93BF93CF93DF93EF93A091CA2C1C
S1130D90B091CB2C0DB60D920EB60D920E94590552
S1130DA0C82F0E94710CC093A20081E00E947E06AD
S1130DB0A091CA2CB091CB2C0D900DBE0D900EBEFF
S1130DC0EF91DF91CF91BF91AF919F918F917F91DF
S1130DD06F915F914F913F912F911F910F91FF90D0
S1130DE0EF90DF90CF90BF90AF909F908F907F90C7
S1130DF06F905F904F903F902F901F900F90FF91B6
S1130E00F093A200FF91FFBFFF911895F091A2000B
S1130E10FF93F87FF093A200FC01968DFF91F0936D
S1130E20A20081E0911180E00895DC01F091A2001C
S1130E30FF93F87FF093A2005E969C915E97FF91DA
S1130E40F093A20081E05F962C91291380E008952D
S1130E500F931F93CF93DF93EC01042F1E8D48A1B2
S1130E604423B9F1011116C050E08C819D810E9488
S1130E70E42328A18C819D81820F911D8C839D8305
S1130E802A813B818217930720F1888199818C8381
S1130E909D831FC050E08E819F810E94E42388A11E
S1130EA090E09195819591092E813F81280F391FFA
S1130EB02E833F83488159812417350730F42A81D2
S1130EC03B81820F931F8E839F83023011F4111193
S1130ED011501F5F1E8F80E0DF91CF911F910F9102
S1130EE00895FC0140A14423A9F050E026813781F4
S1130EF0240F351F2683378382819381281739076E
S1130F0020F08081918186839783CB0166817781EC
S1130F100E94E4230895EF92FF920F931F93CF93BF
S1130F208C01F091A200FF93F87FF093A200FC01E2
S1130F30C2A11C16ACF48389811106C011C0F8014A
S1130F408389811105C00CC07801F3E1EF0EF11C17
S1130F50C7010E94280F81110E940D10C15079F71A
S1130F608FEFF80182A3FF91F093A200F091A20009
S1130F70FF93F87FF093A200F801C1A11C16ACF412
S1130F808085811106C011C0F8018085811105C0DA
S1130F900CC07801F8E0EF0EF11CC7010E94280F85
S1130FA081110E940D10C15079F78FEFF80181A3D0
S1130FB0FF91F093A200CF911F910F91FF90EF90BA
S1130FC00895CF93DF93EC01F091A200FF93F87F93
S1130FD0F093A2004881598128A130E07F8D729F4F
S1130FE0C001739F900D1124FA01E80FF91FEA83E1
S1130FF0FB831E8E4C835D83821B930B840F951F92
S11310008E839F838FEF89A38AA361110CC0888587
S1131010882389F0CE0108960E94280F882359F06E
S11310200E941D0608C0CE0108960E94BF04CE018E
S113103043960E94BF04FF91F093A20081E0DF91E8
S1131040CF910895FF920F931F93CF93DF93082FAF
S1131050162FF42E6623C9F0869FC00111248596AD
S11310600E949804EC01009749F416C00F8F18A34E
S113107061E0CE010E94E107FCA20EC08596888340
S11310809983F4CFC883D983F1CF85E290E00E949D
S11310909804EC01892BB1F7CE01DF91CF911F9118
S11310A00F91FF900895AF92BF92CF92DF92EF928B
S11310B0FF920F931F93CF93DF93CDB7DEB729979A
S11310C0CDBFDEBF7C015B012E833F8348875987F8
S11310D010E06C0188E0C80ED11CF091A200FF93CF
S11310E0F87FF093A200F701968D878D981710F082
S11310F00230D1F4402FB501C7010E942807F7013F
S11311009389992349F0C70143960E94280F8823A5
S113111031F00E941D0603C081110E941D06FF913B
S1131120F093A20081E057C08E819F81A885B98584
S1131130892B8A2B8B2B29F4FF91F093A20080E05A
S11311404AC0111105C0CE0101960E949E0F11E004
S1131150FF91F093A2000E94590CF091A200FF931A
S1131160F87FF093A200F70181A18F3F09F411A247
S1131170F70182A18F3F09F412A2FF91F093A2001C
S1131180BE016A5F7F4FCE0101960E94AF0F8111AD
S11311901CC0C7010E941507882389F04E815F8116
S11311A068857985C6010E94CA0EC7010E948B0713
S11311B00E94440D811191CF0E941D068ECFC7015C
S11311C00E948B070E94440D88CFC7010E948B07A1
S11311D00E94440D80E02996CDBFDEBFDF91CF9100
S11311E01F910F91FF90EF90DF90CF90BF90AF9041
S11311F00895AF92BF92CF92DF92FF920F931F9305
S1131200CF93DF93EC016B015A01022F0E94590521
S1131210F82E9E8D8F8D981710F00230E1F41AA1EC
S1131220402FB601CE010E9428071F3F81F48B890D
S1131230882399F0CE0143960E94280F882379F0E1
S1131240A114B10471F081E0F50180830BC01F5F2C
S11312501AA381E007C080E005C081E003C081E0FB
S113126001C081E0F092A200DF91CF911F910F9114
S1131270FF90DF90CF90BF90AF900895AF92BF9250
S1131280CF92DF92EF92FF920F931F93CF93DF934E
S1131290CDB7DEB72997CDBFDEBF8C015B012E83AE
S11312A03F8348875987E12C6C0183E1C80ED11C28
S11312B0F091A200FF93F87FF093A200F801F68C5E
S11312C0FF20B1F0B501C8010E947107FA94F8013A
S11312D0F68E8085882339F0C80108960E94280F6D
S11312E081110E941D06FF91F093A20081E05EC06F
S11312F08E819F81A885B985892B8A2B8B2B29F414
S1131300FF91F093A20080E051C0E11006C0CE012D
S113131001960E949E0FEE24E394FF91F093A200A5
S11313200E94590CF091A200FF93F87FF093A20061
S1131330F80181A18F3F09F411A2F80182A18F3F26
S113134009F412A2FF91F093A200BE016A5F7F4FDD
S1131350CE0101960E94AF0F81111CC0C8010E94EA
S11313600607882389F04E815F8168857985C601E7
S11313700E94CA0EC8010E948B070E94440D81116D
S113138097CF0E941D0694CFC8010E948B070E942C
S1131390440D8ECFC8010E948B070E94440DC801E2
S11313A00E940607882309F483CF80E02996CDBFE5
S11313B0DEBFDF91CF911F910F91FF90EF90DF90EF
S11313C0CF90BF90AF900895F091A200FF93F87F63
S11313D0F093A200FC01868DFF91F093A200089582
S11313E0CF93DF93EC01F091A200FF93F87FF09389
S11313F0A20089A18F3F09F419A28AA18F3F09F4A1
S11314001AA2FF91F093A2008E8D811104C0CE0127
S113141043960E94070FCE010E948B07DF91CF9164
S11314200895E091862CF091872C808181110CC065
S11314308FEF9FEFDC0180935F2C9093602CA0933F
S1131440612CB093622C0895E091862CF091872C46
S11314500780F085E02D0084F185E02D8281938161
S1131460A481B58180935F2C9093602CA093612C10
S1131470B093622C08958F929F92AF92BF92CF92B5
S1131480DF92EF92FF92CF936B017C01C42F809087
S1131490692C90906A2CA0906B2CB0906C2C80914D
S11314A0CA2C9091CB2C02960E9432058FEFC8165D
S11314B0D806E806F80669F4CC2359F06091CA2CE2
S11314C07091CB2C6E5F7F4F8EE69CE20E94D40419
S11314D03FC0C80CD91CEA1CFB1CE091CA2CF0913B
S11314E0CB2CC282D382E482F582C814D904EA04E4
S11314F0FB0468F46091CA2C7091CB2C8091842CED
S11315009091852C6E5F7F4F0E94F50421C06091FD
S1131510CA2C7091CB2C8091862C9091872C6E5F75
S11315207F4F0E94F50480915F2C9091602CA091D4
S1131530612CB091622CC816D906EA06FB0640F469
S1131540C0925F2CD092602CE092612CF092622CBD
S1131550CF91FF90EF90DF90CF90BF90AF909F908E
S11315608F900895CEE9DCE28881823010F00E94E9
S11315701D060E941C16F8CF4F925F926F927F92C5
S11315808F929F92AF92BF92CF92DF92EF92FF928F
S11315900F93CF93DF934C016B015A012901CA01C8
S11315A00E9498043C01892B09F4EAC08CE290E083
S11315B00E949804EC01892BB1F06B8E7C8EA501FE
S11315C065EA70E0C3010E94ED2321E0A21AB1088C
S11315D08B8D9C8DA80EB91ED6018C918D8F8C910C
S11315E0811105C018C0C3010E94BE04C9C0AE0168
S11315F0425E5F4FF6013196B8E0CB0ED11CCF01AD
S11316002191DA012D93AD01DC018C91882319F02D
S1131610EC15FD05A1F71CA2043008F003E00A8FC5
S11316206E01B2E0CB0ED11CC6010E94D004CE01E3
S11316300E960E94D004CA87DB8784E090E0A0E085
S1131640B0E0801B9109A109B1098E879F87A88BFF
S1131650B98BCE8BDF8B1FA218A619A61AA61BA6C0
S1131660A201B401C5010E94600588839983E11435
S1131670F10419F0F701C083D183F091A200FF9324
S1131680F87FF093A20080916D2C8F5F80936D2C76
S11316908091CA2C9091CB2C892BA9F5C093CA2C8C
S11316A0D093CB2C80916D2C8130E9F58EE99CE2AE
S11316B00E94BF0489EA9CE20E94BF0484EB9CE27E
S11316C00E94BF048FEB9CE20E94BF0483E99CE26A
S11316D00E94BF0488E89CE20E94BF0489E79CE260
S11316E00E94BF048EE69CE20E94BF0483E99CE250
S11316F08093862C9093872C88E89CE28093842C9A
S11317009093852C10C08091672C81110CC0E091BE
S1131710CA2CF091CB2C928D8A8D891720F0C0931E
S1131720CA2CD093CB2C8091632C8F5F8093632C35
S11317308DA38A8D9091682C981710F48093682C4F
S1131740FBE08F9FC0011124B6018256934D0E9485
S1131750D404FF91F093A2008091672C882361F058
S1131760E091CA2CF091CB2C928D8A8D981730F48D
S11317700E941D0681E005C081E003C081E001C034
S11317808FEFDF91CF910F91FF90EF90DF90CF908B
S1131790BF90AF909F908F907F906F905F904F908D
S11317A008950F931F93CF93DF93009709F441C0DB
S11317B02091CA2C3091CB2C8217930709F439C09D
S11317C0F091A200FF93F87FF093A200FC0124851E
S11317D035852E563C4251F5FC01208D318DFCE2BD
S11317E029373F0719F1232B09F5EC018C010E5F12
S11317F01F4FC8010E9432058A8D9091682C98175A
S113180010F48093682C2BE0829FC0011124B8014E
S11318108256934D0E94D404E091CA2CF091CB2CB3
S11318209A8D828D981710F00E941D06FF91F093F7
S1131830A200DF91CF911F910F910895EF92FF9233
S11318400F930F2EFDE5EF2EFCE2FF2EF02D00E0AE
S113185020E030E048EC50E060E070E282EB9AE097
S11318600E94BC0A813009F50E94BD108130E9F460
S1131870E0EAF0E08281887F82838FEF9FEFDC01D2
S113188080935F2C9093602CA093612CB093622C76
S113189081E08093672C1092692C10926A2C10922C
S11318A06B2C10926C2C0E94DD050F91FF90EF9031
S11318B0089580915C2C8F5F80935C2C0895F09147
S11318C0A200FF93F87FF093A2006091692C7091BD
S11318D06A2C80916B2C90916C2CFF91F093A20058
S11318E00895AF92BF92CF92DF92EF92FF920F933F
S11318F01F93CF93DF9380915C2C8111ADC0C09076
S1131900692CD0906A2CE0906B2CF0906C2C8FEFAB
S1131910C81AD80AE80AF80AC092692CD0926A2C2C
S1131920E0926B2CF0926C2CC114D104E104F1040C
S1131930B9F48091862C9091872C2091842C30913D
S1131940852C2093862C3093872C8093842C909321
S1131950852C8091642C8F5F8093642C0E94110AE3
S113196080915F2C9091602CA091612CB091622C9D
S1131970C816D906EA06FB0610F4B12C5CC0B12CDB
S11319800F2EFBE0AF2EF02DE091862CF091872CEA
S1131990808181110CC08FEF9FEFDC0180935F2C5D
S11319A09093602CA093612CB093622C44C0E0917E
S11319B0862CF091872C0780F085E02DC085D18599
S11319C08A819B81AC81BD81C816D906EA06FB06D3
S11319D048F480935F2C9093602CA093612CB09377
S11319E0622C29C08E010E5F1F4FC8010E94320570
S11319F0888D998D892B21F0CE010E960E94320597
S1131A008A8D9091682C981710F48093682CA89E66
S1131A10C0011124B8018256934D0E94D404E09170
S1131A20CA2CF091CB2C9A8D828D981708F4ACCFE8
S1131A30BB24B394A9CFE091CA2CF091CB2CE28DB6
S1131A408BE0E89FF0011124E256F34D808182304F
S1131A5048F0BB24B39406C08091662C8F5F8093BA
S1131A60662CB12C8091652C882311F0BB24B3948F
S1131A708B2DDF91CF911F910F91FF90EF90DF900D
S1131A80CF90BF90AF900895CF92DF92EF92FF92E4
S1131A900F931F93CF93DF93F091A200FF93F87FEE
S1131AA0F093A20080915C2C815080935C2C8091F7
S1131AB05C2C81115CC080916D2C81112CC05AC0AA
S1131AC0D7011796ED91FC911897C085D185CE0169
S1131AD00E960E9432058E010E5F1F4FC8010E94B0
S1131AE032058A8D9091682C981710F48093682C95
S1131AF0D89EC0011124B8018256934D0E94D4048B
S1131B00E091CA2CF091CB2C9A8D828D981788F095
S1131B10C092652C0EC0C0E0D0E00F2EF9E7EF2E86
S1131B20FCE2FF2EF02D0F2EFBE0DF2EF02DCC2457
S1131B30C394F70180818111C3CFCD2B11F00E9492
S1131B40110AC091662CCC2351F0D1E00E94710C93
S1131B508111D093652CC150C9F71092662C8091E5
S1131B60652C882331F00E941D0681E003C080E0CB
S1131B7001C080E0FF91F093A200DF91CF911F910B
S1131B800F91FF90EF90DF90CF900895CF92DF9266
S1131B90EF92FF926B017C01672B682B692B59F044
S1131BA00E94590C40E0C701B6010E943B0A0E9402
S1131BB0440D811102C00E941D06FF90EF90DF903A
S1131BC0CF90089580915C2C882321F081E080934C
S1131BD0652C08951092652CE091CA2CF091CB2CC1
S1131BE0038CF48DE02D80819181A281B381853AAB
S1131BF0954AA54AB54AD9F484819581A681B781CD
S1131C00853A954AA54AB54A91F480859185A2857D
S1131C10B385853A954AA54AB54A49F4848595859C
S1131C20A685B785853A954AA54AB54A61F060917B
S1131C30CA2C7091CB2C8091CA2C9091CB2C635ED2
S1131C407F4F0E94F8028091682C282F30E09BE09F
S1131C50899FF0011124E256F34D908191110EC039
S1131C604BE08150282F30E0429FF001439FF00D5C
S1131C701124E256F34D9081992399F39BE0929FAE
S1131C80A001939F500D1124DA01A256B34D119671
S1131C90ED91FC9112970480F581E02D1196ED935E
S1131CA0FC9312974F55534DE417F50729F44481DB
S1131CB05581FD01418352839BE0929FF001939FE4
S1131CC0F00D1124E256F34D0180F281E02D2085C0
S1131CD031852093CA2C3093CB2C8093682C0895A3
S1131CE00F931F93CF93DF93EC01F091A200FF9326
S1131CF0F87FF093A200892B21F4C091CA2CD091D3
S1131D00CB2C8E010E5F1F4FC8010E943205888DB7
S1131D10998D892B21F0CE010E960E943205B801CF
S1131D208EE69CE20E94D4048BA5813009F41BA6A4
S1131D30FF91F093A2008091672C882359F0F091D1
S1131D40A200FF93F87FF093A2000E94110AFF9172
S1131D50F093A2008091CA2C9091CB2CC817D9077C
S1131D60A1F48091672C882319F00E941D060DC0F0
S1131D7090916E2C80916D2C981305C01092CA2CF2
S1131D801092CB2C02C00E94E20DDF91CF911F91E3
S1131D900F910895CF92DF92EF92FF926A017B0137
S1131DA06091CA2C7091CB2C625F7F4F0E94F50426
S1131DB041E0C701B6010E943B0AFF90EF90DF901B
S1131DC0CF900895CF92DF92EF92FF920F931F93DB
S1131DD068017901E091CA2CF091CB2C7068468798
S1131DE05787608B718B6091CA2C7091CB2C625F8A
S1131DF07F4F0E94D40441E0C701B6010E943B0A10
S1131E001F910F91FF90EF90DF90CF900895CF92A4
S1131E10DF92EF92FF92CF936A017B01C22F609110
S1131E20CA2C7091CB2C625F7F4F0E94D404CC23C8
S1131E3021F0CC24CA94DC2C76014C2FC701B601C6
S1131E400E943B0ACF91FF90EF90DF90CF900895CE
S1131E500F931F93CF93DF93DC011796ED91FC91C1
S1131E601897C085D1858E01025F1F4FC8010E945B
S1131E70320580915C2C811116C00C501109C801E7
S1131E800E9432058A8D9091682C981710F48093E3
S1131E90682CBBE08B9FC0011124B8018256934D7E
S1131EA00E94D40405C0B80189E79CE20E94D404CE
S1131EB0E091CA2CF091CB2C9A8D828D891720F455
S1131EC081E08093652C01C080E0DF91CF911F9168
S1131ED00F9108950F931F93CF93DF937068FC01C4
S1131EE04083518362837383C085D1850E94320508
S1131EF08E010E5F1F4FC8010E9432058A8D90919A
S1131F00682C981710F48093682CFBE08F9FC00115
S1131F101124B8018256934D0E94D404E091CA2C36
S1131F20F091CB2C9A8D828D891718F481E08093DF
S1131F30652CDF91CF911F910F9108952091642C0E
S1131F40FC0120834091692C50916A2C60916B2C88
S1131F5070916C2C41835283638374830895CF9270
S1131F60DF92EF92FF920F931F93CF93DF93DB01E6
S1131F70F091A200FF93F87FF093A2004091692CA6
S1131F8050916A2C60916B2C70916C2C0D911D9169
S1131F902D913C9113970F3FCFEF1C072C073C0763
S1131FA069F1FC01C180D280E380F480E091642C6B
S1131FB0EC01F881FE1729F04C155D056E057F05CF
S1131FC0F8F44C195D096E097F094017510762073F
S1131FD0730768F4FD01041B150B260B370B0083F4
S1131FE01183228333830E949E0F80E00AC01D92D6
S1131FF01D921D921C92139781E003C080E001C0E2
S113200081E0FF91F093A200DF91CF911F910F9196
S1132010FF90EF90DF90CF90089581E08093652C3E
S113202008958091672C882331F080915C2C88235B
S113203021F080E0089581E0089582E00895CF9230
S1132040DF92EF92FF92E091CA2CF091CB2C66853F
S1132050778580899189E091CA2CF091CB2CA0914D
S1132060CA2CB091CB2C5A962C91C12CD12C760130
S11320706894C2F8C21AD108E108F108C686D78666
S1132080E08AF18AFF90EF90DF90CF900895CF928D
S1132090DF92EF92FF920F931F93FC0142835383CD
S11320A06483758382879387041715072607370788
S11320B0C0F00C191D092E093F0986859785A08952
S11320C0B189081719072A073B0700F5BF016E5F9E
S11320D07F4F8091D42C9091D52C0E94F50480E000
S11320E018C00C151D052E053F0528F44C155D057B
S11320F06E057F0568F4BF016E5F7F4F8091D62C1B
S11321009091D72C0E94F50480E003C081E001C0C7
S113211081E01F910F91FF90EF90DF90CF90089591
S1132120F091A200FF93F87FF093A2008091D22C4B
S11321309091D32C892BE9F483EE9CE20E94BF0496
S113214088ED9CE20E94BF0483EE9CE28093D62C2F
S11321509093D72C88ED9CE28093D42C9093D52C2B
S113216040E069E085E00E9422088093D22C90939D
S1132170D32CFF91F093A2000895EF92FF920F9356
S11321800E9490108091D22C9091D32C892B91F0A5
S11321900F2EF0EDEF2EFCE2FF2EF02D03E020E0F9
S11321A030E048EC50E065E070E288E092E10E94A3
S11321B0BC0A01C080E00F91FF90EF9008957F92D8
S11321C08F929F92AF92BF92CF92DF92EF92FF9243
S11321D00F931F93CF93DF936C014A015B01722E1F
S11321E088E190E00E949804EC01892B89F00E9418
S11321F09010C882D9828E869F86A88AB98A7A8AE4
S11322000B8B1C8BED8AFE8ACE0102960E94D004B1
S1132210CE01DF91CF911F910F91FF90EF90DF904E
S1132220CF90BF90AF909F908F907F9008958F92A2
S11322309F92AF92BF92CF92DF92EF92FF920F9351
S11322401F93CF93DF93CDB7DEB72997CDBFDEBF02
S1132250E091D22CF091D32C309789F169832A83B1
S11322603B834C835D838E839F836630FCF40E94A2
S11322701110823069F400E0A7019601BE016F5F7E
S11322807F4F8091D22C9091D32C0E94530818C078
S113229000E020E030E0A901BE016F5F7F4F809134
S11322A0D22C9091D32C0E9453080AC020E0A8019C
S11322B0BE016F5F7F4FCF010E94F90801C080E02B
S11322C02996CDBFDEBFDF91CF911F910F91FF9073
S11322D0EF90DF90CF90BF90AF909F908F90089534
S11322E02F923F924F925F926F927F928F929F9222
S11322F0AF92BF92CF92DF92EF92FF920F931F9310
S1132300CF93DF931C010E945F0C2B013C01809151
S1132310CC2C9091CD2CA091CE2CB091CF2C4816E2
S113232059066A067B0608F054C03CC00780F08555
S1132330E02D80809180A280B380C085D1858E01FC
S11323400E5F1F4FC8010E943205ED89FE89CE0140
S113235019958A89813031F58E859F85A889B98937
S1132360880D991DAA1DBB1D88169906AA06BB06D1
S113237070F48A839B83AC83BD83CA87DB87B801EF
S11323808091D62C9091D72C0E94F5040BC0C12CBF
S1132390D12C760100E010E0A501940160E0CE01AB
S11323A00E941711E091D62CF091D72C80818111D5
S11323B0BDCF8091D42C9091D52C8093D62C909322
S11323C0D72CE093D42CF093D52C81E0F1018083B9
S11323D002C0F10110824092CC2C5092CD2C60921C
S11323E0CE2C7092CF2CC301B201DF91CF911F91FB
S11323F00F91FF90EF90DF90CF90BF90AF909F90A0
S11324008F907F906F905F904F903F902F900895A2
S1132410CF93DF93CDB7DEB72E97CDBFDEBFCE010E
S113242001961C01A82EB32CE091D62CF091D72C48
S11324308081882309F403C10780F085E02D408062
S11324405180628073800E94590CC1010E947011F6
S11324506B877C878D879E87898181115EC08B8580
S11324609C85AD85BE8584159505A605B705E8F15F
S11324700E94440DE091D62CF091D72C0780F08572
S1132480E02D80849184C40102960E943205D40117
S113249052968C915297813001F51E964D915D9123
S11324A06D917C915197440D551D661D771D7301E7
S11324B062010B851C852D853E85C4010E94471051
S11324C0882359F0C12CD12C760100E010E0A3013F
S11324D0920160E0C4010E941711D4015596ED9158
S11324E0FC915697C40119959CC020E0B301A20148
S11324F08B859C85AD85BE85481B590B6A0B7B0B70
S11325008091D22C9091D32C0E94F0090E94440D0A
S1132510811187C00E941D0684C00E94440D81C0A1
S1132520898188236CF44E815F8168857985EA818D
S1132530FB818C819D811995898188230CF471C05C
S11325408E809F80D4011C968D919C911D97892B20
S113255021F0C40102960E943205CE010A960E941F
S113256070118B019C018981082E000C990BAA0B18
S1132570BB0B8A30910508F054C0FC018827E25057
S1132580FF4F8F4F0C94D922CA80DB80EC80FD80F2
S1132590F40146855785608971894C0D5D1D6E1D5A
S11325A07F1DC4010E9447108823D9F1D401559698
S11325B0ED91FC915697C4011995F40182898130FB
S11325C081F54A815B816C817D8186859785A089AF
S11325D0B1899A01AB01280F391F4A1F5B1FC12C17
S11325E0D12C760100E010E060E0C4010E941711D4
S11325F018C04A815B816C817D81D4011E964D9304
S11326005D936D937C935197400F511F621F731F0D
S113261068017901C4010E94471003C0C4010E94EB
S1132620BE0420E030E0A9016A2D7B2D8091D22CDC
S11326309091D32C0E943E09811172CFF5CE0E9455
S1132640590CC1010E9470116B877C878D879E870E
S11326508981811162CFE091D42CF091D52C8081B5
S113266021E0811120E0412C512C32013FCF0F9306
S11326701F93CF93DF93CDB7DEB72997CDBFDEBFCE
S1132680EEEFE9838A839B836C837D832E833F8370
S11326904887598720E0A801BE016F5F7F4F809172
S11326A0D22C9091D32C0E94F9082996CDBFDEBF7D
S11326B0DF91CF911F910F910895E0E5F0E08081C3
S11326C081608083818180FFFDCF80E00E94CA0207
S11326D08EE10E94BA0260E080E00E94C40243E0FE
S11326E060E080E40E94AB02E0E5F0E08081886075
S11326F08083818183FFFDCF64E080EC0E94B5027A
S1132700E0E5F0E080818061808360E080E00E9409
S1132710C402E0E5F0E0818184FFFDCF84E00E9403
S1132720CA0287E00E94BA02089540E250E060E0E5
S113273070E08091272D9091282D0E94F603089532
S1132740CC24CA94DC2C760100E021E040E250E085
S113275060E070E08091272D9091282D0E94100355
S11327608091F62C9091F72C01968093F62C9093FF
S1132770F72C8436910521F78091F82C9091F92C4F
S113278001968093F82C9093F92C1092F62C1092C9
S1132790F72CD6CFCC24CA94DC2C760100E021E0BF
S11327A046E150E060E070E08091272D9091282D63
S11327B00E94100360935F2D7093602D8093612DB0
S11327C09093622D61FF07C08091292D90912A2D4D
S11327D00E94700EDFCF62FF07C08091292D909177
S11327E02A2D0E94D10BD6CF64FFD4CF1092F22CA5
S11327F01092F32C1092F42C1092F52C1092EE2CD3
S11328001092EF2C1092F02C1092F12C1092F82CC4
S11328101092F92CBFCFCC24CA94DC2C760100E0B2
S113282021E041E050E060E070E08091272D90913C
S1132830282D0E9410036093412D7093422D8093A4
S1132840432D9093442D60FFE6CF20E030E040E834
S11328505FE36091F22C7091F32C8091F42C9091B1
S1132860F52C0E94FC1C6093F22C7093F32C809343
S1132870F42C9093F52CC090EE2CD090EF2CE0909B
S1132880F02CF090F12C20E03CE742E958E4C70139
S1132890B6010E94681D88230CF0BDCF20E030E013
S11328A040E850E4C701B6010E94CC1E4B015C0114
S11328B020E030E040E450E40E94FC1C9B01AC01A9
S11328C060E070E080E89FE30E946D1D9B01AC0115
S11328D06091F22C7091F32C8091F42C9091F52C52
S11328E00E94FB1C2B013C0120E030E040EA50E454
S11328F0C501B4010E94FC1C9B01AC0160E070E0C6
S113290080E89FE30E946D1D9B01AC01C301B201ED
S11329100E94FC1C6093F22C7093F32C8093F42C93
S11329209093F52C20E03EE145EF57E4C701B60152
S11329300E94681D81110FC0C12CD12C760100E0CA
S113294010E020E030E0A90163E080915D2D9091DA
S11329505E2D0E94171120E030E040E85FE36091B3
S1132960EE2C7091EF2C8091F02C9091F12C0E9420
S1132970FC1C6B017C016093EE2C7093EF2C809314
S1132980F02C9093F12C20E03CE742E958E40E94BB
S1132990681D88230CF482CF3ECF0F2EFDE0CF2E8E
S11329A0F0E2DF2EF02D0F2EF3E1EF2EF0E2FF2EFA
S11329B0F02D6894AA24A1F8C1E2D0E20F2EF3E02E
S11329C0BF2EF02D20E030E040E850E46091F22C7E
S11329D07091F32C8091F42C9091F52C0E94CC1ED4
S11329E005E41DE227E041E00E94E1226091EE2C23
S11329F07091EF2C8091F02C9091F12C0DE21DE25E
S1132A0020E041E00E94E12285E49DE29F938F93C0
S1132A10DF92CF921F921F921F9281E08F930E94A8
S1132A203219C8019F930F93FF92EF921F921F9246
S1132A301F92AF920E9432198091F92C8F9380914A
S1132A40F82C8F93DF93CF931F921F921F92BF9204
S1132A500E94321964EF71E080E090E00E94C60D9C
S1132A608DB79EB748968DBF9EBFACCF0E94D00154
S1132A7068EB7BE080E090E00E94C60D0E9427197D
S1132A80CDE2D0E20F2EFFE38F2EF0E29F2EF02D49
S1132A900F2EF1E5AF2EF0E2BF2EF02D0E94DB01E8
S1132AA080E00E948002813051F50E942719DF9353
S1132AB0CF931F921F921F921F920E94321941E0DE
S1132AC050E060E070E08091272D9091282D0E94C5
S1132AD0F6030E945F0C9B01AC01C12CD12C760142
S1132AE000E010E061E080915D2D90915E2D0E94E8
S1132AF017110F900F900F900F900F900F9081E08F
S1132B000E948002813049F50E9427199F928F927A
S1132B101F921F921F921F920E94321942E050E0AE
S1132B2060E070E08091272D9091282D0E94F6039B
S1132B30C12CD12C760100E010E020E030E0A901A6
S1132B4063E080915D2D90915E2D0E9417110F908E
S1132B500F900F900F900F900F9082E00E948002D0
S1132B60813051F50E942719DF93CF931F921F9252
S1132B701F921F920E94321944E050E060E070E01E
S1132B808091272D9091282D0E94F6030E945F0CBE
S1132B909B01AC01C12CD12C760100E010E061E076
S1132BA080915D2D90915E2D0E9417110F900F90D2
S1132BB00F900F900F900F9083E00E94800281305D
S1132BC0A1F50E942719BF92AF921F921F921F92E4
S1132BD01F920E94321940E150E060E070E0809161
S1132BE0272D9091282D0E94F6030E945F0C9B01D3
S1132BF0AC01C12CD12C760100E010E062E08091A0
S1132C005D2D90915E2D0E94171120E030E0A90106
S1132C1063E080915D2D90915E2D0E9417110F90BD
S1132C200F900F900F900F900F906AE070E080E08B
S1132C3090E00E94C60D32CF0895EF92FF920F9359
S1132C401F930E94D51C0E945D130E94AB170F2E88
S1132C50F5E9EF2EF3E1FF2EF02D00E010E021E086
S1132C604AE050E060E070E087E590E20E94DF1007
S1132C7080935D2D90935E2D0E94FB028093272DFF
S1132C809093282D0F2EF9E2EF2EFDE2FF2EF02D6A
S1132C9001E020E030E048EC50E06FE570E28BE0CA
S1132CA094E10E94BC0A0F2EF9E5EF2EFDE2FF2EFF
S1132CB0F02D20E030E048EC50E06AE670E28DEC64
S1132CC094E10E94BC0AE12CF12C20E030E048ECB5
S1132CD050E064E770E286E395E10E94BC0A0F2E9F
S1132CE0FBE2EF2EFDE2FF2EF02D20E030E048EC79
S1132CF050E06FE570E28AEC93E10E94BC0A0F2E6B
S1132D00FBE5EF2EFDE2FF2EF02D20E030E048EC55
S1132D1050E06FE570E280EA93E10E94BC0A0E94F1
S1132D2027198BE790E29F938F931F921F921F9214
S1132D301F920E9432190E941E0C0F900F900F9048
S1132D400F900F900F9080E090E01F910F91FF90F3
S1132D50EF9008951F920F920FB60F9211240BB6A5
S1132D600F922F933F934F935F936F937F938F9320
S1132D709F93AF93BF93EF93FF93CF93DF931F92F0
S1132D80CDB7DEB719829E012F5F3F4F41E050E07F
S1132D9060E070E08091652D9091662D0E948B0417
S1132DA060E080E09BE00E94DF021092060B0F902F
S1132DB0DF91CF91FF91EF91BF91AF919F918F914F
S1132DC07F916F915F914F913F912F910F900BBE27
S1132DD00F900FBE0F901F901895CF92DF92EF9235
S1132DE0FF920F936B017C0182E0C816D104E104C9
S1132DF0F10408F44EC0E0E0FBE081E0868310A219
S1132E0011A260E080E09BE00E94E5028EEFC8160C
S1132E108FEFD806E104F10470F4F694E794D794A4
S1132E20C794C092260BD092270B65E080E09BE00C
S1132E300E94DF0219C080E4C81682E4D8068FE03D
S1132E40E806F10488F4689414F8F694E794D794A7
S1132E50C7941694D1F7C092260BD092270B67E043
S1132E6080E09BE00E94DF020F2EF4EFCF2EDD24E2
S1132E70D394E12CF12CF02D00E021E041E050E06E
S1132E8060E070E08091652D9091662D0E941003A2
S1132E9011C0E0E0FBE081E0868310A211A260E0B3
S1132EA080E09BE00E94E502C12CD12C760168945D
S1132EB0C1F8B3CF0F91FF90EF90DF90CF900895BA
S1132EC08295807FE0E0F6E09481282F2F609223A2
S1132ED094839481892B848308951F93CF93DF93E4
S1132EE0C0E6D6E014E01D8361E070E080E090E08D
S1132EF00E94ED161E83DF91CF911F910895CF9309
S1132F00C82F82958F700E946017E0E6F6E081E09A
S1132F10868382E086830E946D178C2F8F700E94B7
S1132F2060170E946D17CF910895CF93C82F829593
S1132F308F700E946017E0E6F6E081E0858382E00E
S1132F4086830E946D178C2F8F700E9460170E94D9
S1132F506D17CF910895EF92FF920F93E0E0F6E0A2
S1132F6080E1818380E2818380E4818380E88183BE
S1132F70A0E6B6E081E011968C93119782E0119659
S1132F808C93119784E011968C93119784818F70A0
S1132F90848314968C911497887F14968C9340E0C4
S1132FA066E188E00E9422088093632D9093642D4B
S1132FB00E94FB028093652D9093662DE12CF12CE9
S1132FC002E020E030E04EE551E06FE870E289E491
S1132FD098E10E94BC0A0F91FF90EF900895813010
S1132FE0910579F01CF4892B39F019C082309105D0
S1132FF069F0039781F013C080E8860F0E947F1761
S11330000EC080EC860F0E947F1709C084E9860FEA
S11330100E947F1704C084ED860F0E947F1767E229
S113302070E080E090E00E94ED1608950E949517EC
S11330306BE270E080E090E00E94ED1608950F933B
S11330401F93CF93DF93FC01808181110AC011C0CB
S11330508991882371F00E9416180C171D07C1F777
S113306008C08F010E941618E80121960C5E1F4FBC
S1133070EFCFDF91CF911F910F910895CF93DF93FD
S1133080EA010E94EF17CE010E941F18DF91CF9131
S11330900895CF93DF93CDB7DEB7C656D109CDBF20
S11330A0DEBF5E0141E5A40EB11CFE01319620E2B3
S11330B008C02193E817F907E1F7FC01A816B9063F
S11330C019F0CF014496F5CF60E47CE980E090E00C
S11330D00E94ED1683E00E94601768E873E180E0C7
S11330E090E00E94ED160E946D1760EA70E080E0A7
S11330F090E00E94ED160E946D1760EA70E080E097
S113310090E00E94ED160E946D1760EA70E080E086
S113311090E00E94ED1682E00E9460170E946D17F5
S113312088E20E947F1780E10E947F178CE00E9452
S11331307F1786E00E947F1710E26E0151E5C50EED
S1133140D11C0F2EF4E14F2EF02D0F2EF6E18F2E11
S1133150912CF02D5C2C0D2D68EC70E080E090E05B
S11331600E94C60D40E050E0BA018091652D909117
S1133170662D0E94D503672B682B692B09F449C07F
S113318042E050E060E070E08091652D9091662D02
S11331900E94D503FE01319608C01193E817F90780
S11331A0E1F7FC018A159B05A1F1CF014496F5CF07
S11331B02FEF3FEFA901652D702F8091632D909122
S11331C0642D0E943E09882321F1F6012181822F7A
S11331D090E04497F4F482818823D9F0908130E020
S11331E0D901499EA00DB11D112441E050E04C0FBE
S11331F05D1FA40FB51F3396A401421B530B9A0104
S11332002C0D3D1D8D93E217F30719F08191811167
S1133210F9CF8091632D9091642D0E94E40981116E
S1133220C7CFCE0101967C01612C712CA70160E00F
S113323070E0C3010E943E189FEF691A790AE4E125
S1133240EE0EF11CF4E06F16710481F785CF42E0B5
S113325050E060E070E08091652D9091662D0E94B1
S1133260F60308952F923F924F925F926F927F924E
S11332708F929F92AF92BF92CF92DF92EF92FF9282
S11332800F931F93CF93DF93CDB7DEB76D97CDBF69
S1133290DEBF2BA92B8FAFA9B8AD7E0139E3E30EB6
S11332A0F11C22E23DE2EEE0FDE21192E217F307A7
S11332B0E1F70F2EFAEFAF2EFCE2BF2EF02D2EE039
S11332C03DE2F5011192E217F307E1F7812C912C0D
S11332D00F2EFEE0CF2EFDE2DF2EF02DFCC2853254
S11332E009F0E8C22D0182E0480E511C11968C9120
S11332F0853609F4DBC138F48336C1F008F048C0E0
S1133300853251F0E7C28337F9F0883709F468C091
S1133310863609F0DFC28CC0F401E650F34D95E225
S11333209083AFEF8A1A9A0AD201D5C2F401E6500B
S1133330F34DD7018C918083BFEF8B1A9B0AF70161
S113334032967F01D201C7C2A7014E5F5F4FD701FA
S11333508D919C919C01B401F401E650F34D00E081
S113336010E006C0D901FD909D01F1920F5F1F4F3F
S1133370DC010D900020E9F71197A81BB90B0A177F
S11333801B0780F34D01860E971E7A01D201A3C25A
S113339087010E5F1F4F4AE0B601F70180819181DA
S11333A00E94FF239401D401A650B34D4EE05DE288
S11333B080E090E005C0FA016191AF016D93019640
S11333C0F60101900020E9F73197EE50FD428E1787
S11333D09F0788F34F01820E931E7801D2017BC2AE
S11333E087010E5F1F4F40E1B601D7018D919C917B
S11333F00E94FF239401F401E650F34D4EE05DE298
S113340080E090E005C0DA016D91AD016193019611
S1133410D6010D900020E9F71197AE50BD428A17EE
S11334209B0788F34D01820E931E7801D20153C28B
S11334301701B4E02B0E311CD7018D919D910D9095
S1133440BC91A02D8F8B988FA98FBA8F20E030E08C
S1133450A901BC01CD010E94681D811105C020E3B2
S1133460F6012083118204C120E030E0A9016F89B4
S1133470788D898D9A8D0E94681D88239CF4EDE2D5
S1133480D601EC938F89988DA98DBA8DB0588F8B06
S1133490988FA98FBA8F0F2EFFE06F2EFDE27F2E3B
S11334A0F02D01C0360120E030E040E85FE36F8991
S11334B0788D898D9A8D0E94C71E88230CF444C28E
S11334C000E010E020E030E040E251E46F89788DC4
S11334D0898D9A8D0E946D1D6F8B788F898F9A8F3D
S11334E00F5F1F4F20E030E040E85FE30E94C71EFB
S11334F0882344F72DEC3CEC4CEC5DE36F89788D2C
S1133500898D9A8D0E94681D88231CF01AC000E0E2
S113351010E020E030E040E251E46F89788D898D3D
S11335209A8D0E94CC1E6F8B788F898F9A8F015051
S113353011092DEC3CEC4CEC5DE30E94681D8823E2
S113354044F310161106ACF57301D301A00FB11F9B
S1133550AC8FBD8F3D016F89788D898D9A8D20E068
S113356030E040E251E40E94CC1E6F8B788F898F4B
S11335709A8F0E94DF1D20E3260FF70121937F011C
S1133580072E000C880B990B0E94171E9B01AC019F
S11335906F89788D898D9A8D0E94FB1CE614F7043F
S11335A0F1F66F8B788F898F9A8F0115110589F445
S11335B0DBC1C801E0E3D301EC937301F2E0EF0E49
S11335C0F11C2EE211962C9399236CF000E010E08C
S11335D01FC0EC8CFD8C3FEFE31AF30AEEE2AC8DD6
S11335E0BD8DEC9312C000E010E0FFEFEF1AFF0A6C
S11335F0F701319720E3208301970F5F1F4F992331
S113360024F4043011058CF331C00430110574F531
S1133610370184E090E0801B910BE80EF91E8701CE
S11336206F89788D898D9A8D20E030E040E251E4F5
S11336300E94CC1E6F8B788F898F9A8F0E94DF1D1A
S113364020E3260FD3012D933D01072E000C880B98
S1133650990B0E94171E9B01AC016F89788D898D8F
S11336609A8D0E94FB1C60167106F1F6F701108218
S11336709401F401E650F34D4EE05DE280E090E009
S113368005C0DA016D91AD0161930196D6010D90EB
S11336900020E9F71197AE50BD428A179B0788F3C3
S11336A04D01820E931E7101D20115C11701B4E0C0
S11336B02B0E311CD7018D919D910D90BC91A02DA5
S11336C08F8B988FA98FBA8F20E030E0A901BC01BD
S11336D0CD010E94681D811105C020E3F6012083FD
S11336E01182CAC020E030E0A9016F89788D898DEC
S11336F09A8D0E94681D88239CF4EDE2D601EC9318
S11337008F89988DA98DBA8DB0588F8B988FA98F7A
S1133710BA8F0F2EFFE06F2EFDE27F2EF02D01C039
S1133720360120E030E040E85FE36F89788D898DD1
S11337309A8D0E94C71E8823DCF000E010E020E090
S113374030E040E251E46F89788D898D9A8D0E9432
S11337506D1D6F8B788F898F9A8F0F5F1F4F20E0BD
S113376030E040E85FE30E94C71E882344F702C0AC
S113377000E010E02DEC3CEC4CEC5DE36F89788DBF
S1133780898D9A8D0E94681D8823C4F420E030E05E
S113379040E251E46F89788D898D9A8D0E94CC1E08
S11337A06F8B788F898F9A8F015011092DEC3CEC27
S11337B04CEC5DE30E94681D882344F320E030E074
S11337C040E251E46F89788D898D9A8D0E94CC1ED8
S11337D06F8B788F898F9A8F0E94DF1D20E3260FCD
S11337E0D3012C93072E000C880B990B0E94171EF3
S11337F09B01AC016F89788D898D9A8D0E94FB1C89
S1133800F8013197EC8FFD8FEEE2D3011196EC9322
S113381083010E5F1F4F7301F6E0EF0EF11C20E0F1
S113382030E040E251E40E94CC1E6F8B788F898F88
S11338309A8F0E94DF1D20E3260FD8012D938D015E
S1133840072E000C880B990B0E94171E9B01AC01DC
S11338506F89788D898D9A8D0E94FB1C0E151F052A
S1133860F1F625E6F3012683B301695F7F4F4AE051
S11338708C8D9D8D0E94FF239401F401E650F34D3D
S11338804EE05DE280E090E005C0DA016D91AD01AB
S113389061930196D6010D900020E9F71197AE507F
S11338A0BD428A179B0788F34D01820E931E710156
S11338B0D20111C08A3029F0F401E650F34D80831F
S11338C004C0F401E650F34D10821196EFEF8E1A06
S11338D09E0A01C0D2018C91811101CD8DA99EA9AE
S11338E0880D991D44973CF084E190E04C012DA98A
S11338F03EA9821A930AFE013396CE014796DF0150
S11339001D92A817B907E1F73B8D39838DA98A83E6
S1133910181419045CF4CE01880D991D0396D50181
S11339202D915D0121938E179F07C9F700E02FEFBA
S11339303FEFA901BE016F5F7F4F8091632D90918E
S1133940642D0E9453081BC02DEC3CEC4CEC5DE351
S11339506F89788D898D9A8D0E94681D88230CF457
S1133960D6CD80E090E026CE20E3EC8DFD8D208343
S11339707F0132E0E30EF11C8EE2818346CE6D9628
S1133980CDBFDEBFDF91CF911F910F91FF90EF90DC
S1133990DF90CF90BF90AF909F908F907F906F906B
S11339A05F904F903F902F9008958091780085FF0D
S11339B005C080E28093780081E0089580917800CA
S11339C080FF05C081E08093780082E008958091B3
S11339D0780084FF05C080E18093780083E0089537
S11339E08091780081FF05C082E08093780084E0B4
S11339F0089582E008955058BB27AA270E94131DFA
S1133A000C948D1E0E947F1E38F00E94861E20F0AA
S1133A1039F49F3F19F426F40C947C1E0EF4E095BF
S1133A20E7FB0C94761EE92F0E949E1E58F3BA17EA
S1133A30620773078407950720F079F4A6F50C94C0
S1133A40C01E0EF4E0950B2EBA2FA02D0B01B90168
S1133A5090010C01CA01A0011124FF27591B99F000
S1133A60593F50F4503E68F11A16F040A22F232F0C
S1133A70342F4427585FF3CF469537952795A7955C
S1133A80F0405395C9F77EF41F16BA0B620B730B03
S1133A90840BBAF09150A1F0FF0FBB1F661F771F74
S1133AA0881FC2F70EC0BA0F621F731F841F48F429
S1133AB0879577956795B795F7959E3F08F0B0CFB2
S1133AC09395880F08F09927EE0F97958795089599
S1133AD00E94521E08F481E008950E94811D0C94F6
S1133AE08D1E0E94861E58F00E947F1E40F029F40D
S1133AF05F3F29F00C94761E51110C94C11E0C9456
S1133B007C1E0E949E1E68F39923B1F3552391F302
S1133B10951B550BBB27AA2762177307840738F038
S1133B209F5F5F4F220F331F441FAA1FA9F335D095
S1133B300E2E3AF0E0E832D091505040E695001C49
S1133B40CAF72BD0FE2F29D0660F771F881FBB1F03
S1133B50261737074807AB07B0E809F0BB0B802DE1
S1133B60BF01FF2793585F4F3AF09E3F510578F00D
S1133B700C94761E0C94C11E5F3FE4F3983ED4F37C
S1133B80869577956795B795F7959F5FC9F7880FE1
S1133B90911D9695879597F90895E1E0660F771F33
S1133BA0881FBB1F621773078407BA0720F0621BC4
S1133BB0730B840BBA0BEE1F88F7E09508950E94EF
S1133BC0E61D6894B1110C94C11E08950E94A61EAE
S1133BD088F09F5798F0B92F9927B751B0F0E1F0CA
S1133BE0660F771F881F991F1AF0BA95C9F714C07A
S1133BF0B13091F00E94C01EB1E008950C94C01E33
S1133C00672F782F8827B85F39F0B93FCCF38695B2
S1133C1077956795B395D9F73EF49095809570950F
S1133C2061957F4F8F4F9F4F0895E89409C097FB8C
S1133C303EF490958095709561957F4F8F4F9F4F7F
S1133C409923A9F0F92F96E9BB279395F6958795C3
S1133C5077956795B795F111F8CFFAF4BB0F11F486
S1133C6060FF1BC06F5F7F4F8F4F9F4F16C088232D
S1133C7011F096E911C0772321F09EE8872F762F63
S1133C8005C0662371F096E8862F70E060E02AF0A4
S1133C909A95660F771F881FDAF7880F9695879590
S1133CA097F90895990F0008550FAA0BE0E8FEEF65
S1133CB016161706E807F907C0F012161306E407EC
S1133CC0F50798F0621B730B840B950B39F40A26E5
S1133CD061F0232B242B252B21F408950A2609F4C3
S1133CE0A140A6958FEF811D811D089597F99F67C7
S1133CF080E870E060E008959FEF80EC0895002470
S1133D000A941616170618060906089500240A943C
S1133D1012161306140605060895092E0394000CC2
S1133D2011F4882352F0BB0F40F4BF2B11F460FF51
S1133D3004C06F5F7F4F8F4F9F4F089557FD90587A
S1133D40440F551F59F05F3F71F04795880F97FB5B
S1133D50991F61F09F3F79F0879508951216130615
S1133D601406551FF2CF4695F1DF08C01616170644
S1133D701806991FF1CF8695710561050894089579
S1133D80E894BB2766277727CB0197F908950E940B
S1133D90521E08F48FEF08950E94DF1E0C948D1EAE
S1133DA00E947F1E38F00E94861E20F0952311F099
S1133DB00C94761E0C947C1E11240C94C11E0E943B
S1133DC09E1E70F3959FC1F3950F50E0551F629F9F
S1133DD0F001729FBB27F00DB11D639FAA27F00D60
S1133DE0B11DAA1F649F6627B00DA11D661F829F87
S1133DF02227B00DA11D621F739FB00DA11D621F6C
S1133E00839FA00D611D221F749F3327A00D611D88
S1133E10231F849F600D211D822F762F6A2F11246A
S1133E209F5750409AF0F1F088234AF0EE0FFF1F9D
S1133E30BB1F661F771F881F91505040A9F79E3FF4
S1133E40510580F00C94761E0C94C11E5F3FE4F380
S1133E50983ED4F3869577956795B795F795E7954A
S1133E609F5FC1F7FE2B880F911D9695879597F953
S1133E7008952F923F924F925F926F927F928F920A
S1133E809F92AF92BF92CF92DF92EF92FF920F93E5
S1133E901F93CF93DF93CDB7DEB76097CDBFDEBF5F
S1133EA07C011B016A01FC0116821782838181FF58
S1133EB044C39E012F5F3F4F3901F7019381F10104
S1133EC093FD859193FF81911F01882309F431C3E8
S1133ED0853239F493FD859193FF81911F018532D9
S1133EE039F4B70190E00E94242456016501E5CF1E
S1133EF010E0512C912CFFE1F915D8F08B3279F0B8
S1133F0038F4803279F08332A1F4F92DF0612EC0B7
S1133F108D3261F0803369F4292D21602DC0392D53
S1133F203260932E892D8460982E2AC0E92DE86092
S1133F3015C097FC2DC020ED280F2A3088F496FE7A
S1133F4006C03AE0139F200D1124122F19C08AE0F5
S1133F50589E200D1124522EE92DE0629E2E10C091
S1133F608E3231F496FCE5C2F92DF0649F2E08C020
S1133F708C3621F4292D2068922E02C0883641F413
S1133F80F10193FD859193FF81911F018111B3CFBD
S1133F909BEB980F933020F4992D9061805E07C0BD
S1133FA09BE9980F933008F066C1992D9F7E96FF88
S1133FB016E09F73992E853619F49064992E08C0E3
S1133FC0863621F4392F3068932E02C01111115016
S1133FD097FE07C01C3350F444244394410E27E059
S1133FE00BC0183038F027E017E005C027E09CE349
S1133FF0492E02C0212F412C560184E0A80EB11C89
S1134000F6016081718182819381042DA3010E9454
S113401001236C01F981FC87F0FF02C0F3FF06C0A5
S113402091FC06C092FE06C000E205C00DE203C08A
S11340300BE201C000E08C858C7019F001115AC2AA
S11340409BC297FE10C04C0CFC85F4FF04C08A810F
S1134050813309F44A94141474F528E0241578F58E
S113406088E0482E2CC096FC2AC0812F90E08C1545
S11340709D059CF03CEFC3163FEFD30674F0892DE9
S11340808068982E0AC0E2E0F0E0EC0FFD1FE10F1B
S1134090F11D8081803319F411501111F4CF97FE72
S11340A00EC044244394410E812F90E0C816D906D3
S11340B02CF41C1904C04424439401C010E097FE5E
S11340C006C01C141D0434F4C601019605C085E025
S11340D090E002C081E090E001110196112331F0DB
S11340E0212F30E02F5F3F4F820F931F252D30E0AB
S11340F08217930714F4581A01C0512C892D897022
S113410049F4552039F0B70180E290E00E9424245C
S11341105A94F7CF002329F0B701802F90E00E9432
S1134120242493FC09C0552039F0B70180E390E0C2
S11341300E9424245A94F7CF97FE4CC04601D7FE20
S113414002C0812C912CC60188199909F301E80F4A
S1134150F91FED87FE879601241931092F87388BC3
S1134160012F10E01195019511093FEF8316930675
S113417029F4B7018EE290E00E942424C814D904E3
S11341804CF08F8598898815990524F4ED85FE8572
S1134190818101C080E3F1E08F1A91082D853E856D
S11341A02F5F3F4F2D873E87801691062CF0B70175
S11341B090E00E942424D9CFC814D90441F49A81F0
S11341C0963320F4953319F43C8534FF81E3B70129
S11341D090E04EC08A81813319F09C859F7E9C8734
S11341E0B70190E00E942424111105C094FC18C06A
S11341F085E690E017C0B7018EE290E00E94242487
S11342001E5F82E001E0080FF301E80FF11D8081D9
S1134210B70190E00E942424802F0113F3CFE6CF4E
S113422085E490E0B7010E942424D7FC06C0C114A1
S1134230D10441F4EC85E4FF05C0D194C194D108C4
S11342408DE201C08BE2B70190E00E94242480E358
S11342502AE0C216D1042CF08F5FFAE0CF1AD108FD
S1134260F7CFB70190E00E942424B701C601C0969D
S11342700E94242454C1833631F0833779F0833586
S113428009F056C020C0560132E0A30EB11CF6015D
S11342908081898301E010E0630112C05601F2E0DD
S11342A0AF0EB11CF601C080D18096FE03C0612F11
S11342B070E002C06FEF7FEFC6010E94F4238C010F
S11342C0F92DFF7714C0560122E0A20EB11CF601AD
S11342D0C080D18096FE03C0612F70E002C06FEFF2
S11342E07FEFC6010E94D9238C01F92DF0689F2E1F
S11342F0F3FD1AC0852D90E008171907A8F4B7013B
S113430080E290E00E9424245A94F4CFF60197FCB2
S1134310859197FE81916F01B70190E00E9424245A
S113432051105A94015011090115110579F7F7C07C
S1134330843611F0893661F5560197FE09C024E0F0
S1134340A20EB11CF60160817181828193810AC041
S1134350F2E0AF0EB11CF60160817181072E000CF2
S1134360880B990BF92DFF769F2E97FF09C0909526
S11343708095709561957F4F8F4F9F4FF0689F2E6A
S11343802AE030E0A3010E946024C82EC6183FC072
S1134390092D853721F40F7E2AE030E01DC0097F06
S11343A08F3691F018F4883559F0C3C0803719F06E
S11343B0883711F0BEC0006104FF09C0046007C063
S11343C094FE08C0066006C028E030E005C020E185
S11343D030E002C020E132E0560107FF09C084E06A
S11343E0A80EB11CF601608171818281938108C09D
S11343F0F2E0AF0EB11CF6016081718180E090E0C3
S1134400A3010E946024C82EC6180F77902E96FE32
S11344100BC0092D0E7FC11650F494FE0AC092FC05
S113442008C0092D0E7E05C0DC2C092D03C0DC2C30
S113443001C0D12E04FF0DC0FE01EC0DF11D8081E1
S1134440803311F4097E09C002FF06C0D394D394CB
S113445004C0802F867809F0D39403FD11C000FFB7
S113446006C01C2DD51480F4150D1D190DC0D514CE
S113447058F4B70180E290E00E942424D394F7CF4B
S1134480D51410F45D1801C0512C04FF10C0B701FD
S113449080E390E00E94242402FF17C001FD03C0C2
S11344A088E790E002C088E590E0B7010CC0802F57
S11344B0867859F001FF02C08BE201C080E207FD5B
S11344C08DE2B70190E00E942424C11638F4B701AC
S11344D080E390E00E9424241150F7CFCA94F301A2
S11344E0EC0DF11D8081B70190E00E942424C110DD
S11344F0F5CF15C0F4E0F51560F584E0581A93FE85
S11345001FC0011127C02C8523FF2AC008E412E034
S1134510392D3071932EF8018491811124C05520D6
S113452009F4E4CCB70180E290E00E9424245A9478
S1134530F6CFF7018681978126C08FEF9FEF23C0C6
S1134540B70180E290E00E9424245A945110F8CFDD
S1134550D8CF512CB701802F90E00E942424D3CFD0
S11345600CE412E0D5CF91108052B70190E00E9484
S113457024240F5F1F4FCFCF23E0251510F483E0D1
S1134580BDCF512CC0CF6096CDBFDEBFDF91CF91A0
S11345901F910F91FF90EF90DF90CF90BF90AF905D
S11345A09F908F907F906F905F904F903F902F904F
S11345B00895EE0FFF1F881F8BBF0790F691E02D23
S11345C01994EF920F931F93CF93DF93E80147FD64
S11345D002C034E001C034E1042E000C550B57FF37
S11345E003C0519541955109E32E022F242FAE01AA
S11345F00E94BE24CE01DF91CF911F910F91EF90C5
S11346000895283008F027E03327DA01990F311D87
S113461087FD916000966105710539F432602E5F63
S11346203D9330E32A95E1F708959F3F30F08038B9
S11346307105610509F03C5F3C5F3D93913008F0E2
S11346408068911DDF93CF931F930F93FF92EF9296
S1134650192F987F9695E92F96959695E90FFF2740
S1134660E655FD4F99273327EE24FF24A701E701E0
S113467005900894079428F4360FE71EF81E491F86
S1134680511D660F771F881F991F0694A1F7059087
S1134690079428F4E70EF81E491F561FC11D770F13
S11346A0881F991F661F0694A1F70590079428F4A4
S11346B0F80E491F561FC71FD11D880F991F661F6B
S11346C0771F0694A1F70590079420F4490F561F0D
S11346D0C71FD81F990F661F771F881F0694A9F755
S11346E084911095177041F0D695C79557954795C5
S11346F0F794E7941A95C1F7E0E5F2E06894159011
S1134700159135916591959105907FE27395E11826
S1134710F10A430B560BC90BD009C0F7E10CF11E8B
S1134720431F561FC91FD01D7EF4703311F48A95A0
S1134730E6CFE894015030F0080F0AF4002702177E
S113474008F4202F2395022F7A3328F079E37D9300
S11347502A95E9F710C07D932A9589F606949795D2
S11347606795379517951794E118F10A430B560B83
S1134770C90BD00998F023957E9173957A3308F08C
S113478070E37C932013B8F77E9170617D9330F0D1
S1134790839571E37D9370E32A95E1F71124EF90FB
S11347A0FF900F911F91CF91DF91992787FD9095ED
S11347B00895FC010590615070400110D8F7809570
S11347C090958E0F9F1F0895FB01DC0102C001909C
S11347D00D9241505040D8F70895DC0101C06D930B
S11347E041505040E0F70895FC0161507040019041
S11347F00110D8F7809590958E0F9F1F0895BB27C1
S11348004A3031F4992322F4BDE2909581959F4F6B
S11348100C940B24BB27FB015527AA27880F991F4B
S1134820AA1FA41710F0A41B83955051B9F7A05DDB
S1134830AA3308F0A95DA193009779F7B111B19358
S11348401192CB010C942F260F931F93CF93DF93D8
S1134850FB01238121FD03C08FEF9FEF2CC022FFBA
S113486016C046815781248135814217530744F489
S1134870A081B1819D012F5F3F4F208331838C93B1
S1134880268137812F5F3F4F2683378314C08B01E6
S1134890EC01FB010084F185E02D1995892BE1F6EB
S11348A0D80116968D919C911797019616968D9323
S11348B09C931797CE01DF91CF911F910F9108958B
S11348C0FA01AA27283051F1203181F1E8946F933D
S11348D06E7F6E5F7F4F8F4F9F4FAF4FB1E03ED0E3
S11348E0B4E03CD0670F781F891F9A1FA11D680F81
S11348F0791F8A1F911DA11D6A0F711D811D911DB4
S1134900A11D20D009F468943F912AE0269F112428
S11349103019305D3193DEF6CF010895462F47708C
S1134920405D4193B3E00FD0C9F7F6CF462F4F70E7
S1134930405D4A3318F0495D31FD4052419302D045
S1134940A9F7EACFB4E0A6959795879577956795EB
S1134950BA95C9F700976105710508959B01AC01EB
S11349600A2E06945795479537952795BA95C9F712
S1134970620F731F841F951FA01D08958F929F922D
S1134980AF92BF92CF92DF92EF92FF920F931F9359
S1134990CF93DF93CDB7DEB72997CDBFDEBF6A01D2
S11349A0122FB02E2BE3201720F0FF24F394F00EE7
S11349B002C02CE3F22E0F2D27E0AE014F5F5F4FB4
S11349C00E940123BC014981842F8970813031F018
S11349D0E1FC06C0E0FE06C090E205C09DE203C013
S11349E09BE201C090E05E2D507143FF3CC09111E9
S11349F002C083E001C084E0811718F4212F281B32
S1134A0001C020E051110BC0F601822F30E288234F
S1134A1019F031938150FBCFC20ED11C20E09923B1
S1134A2029F0D6019C93F60131966F01C6010396D5
S1134A30E2FE0AC03EE4D6013C9341E411964C9355
S1134A40119712963C9306C03EE6F601308341E688
S1134A5041833283FC01322F40E2332309F442C004
S1134A6041933150FACF42FF44C0911102C083E018
S1134A7001C084E0811718F4212F281B01C020E015
S1134A8051110BC0F601822F30E2882319F03193C3
S1134A908150FBCFC20ED11C20E0992329F0D6010E
S1134AA09C93F60131966F01C6010396E2FE0BC09A
S1134AB039E4D6013C933EE411963C93119736E4D5
S1134AC012963C9307C039E6F60130833EE6318303
S1134AD036E63283FC01322F40E2332319F041934E
S1134AE03150FBCFFC01E20FF11D10828EEF9FEFDE
S1134AF0A6C021E030E0911102C020E030E016169B
S1134B0017061CF4FB01319602C0E1E0F0E02E0F21
S1134B103F1FBB2021F0EB2DF0E0319602C0E0E016
S1134B20F0E02E0F3F1FE12FF0E02E173F071CF49B
S1134B30121B212F01C020E08E2D887159F4F6013B
S1134B40822F30E2882319F031938150FBCFC20EBB
S1134B50D11C20E0992329F0D6019C93F6013196CB
S1134B606F0151110BC0F601822F90E3882319F0D5
S1134B7091938150FBCFC20ED11C20E00F2D060F64
S1134B809A81342F307144FF03C0913309F40150EA
S1134B90101624F4093018F008E001C001E0AB015C
S1134BA077FF02C040E050E0FB01E41BF50BA1E0FD
S1134BB0B0E0AC0FBD1FEA0FFB1F8EE2A82E4B0125
S1134BC0801A91080B2D10E01195019511094F3FA2
S1134BD0BFEF5B0721F4D601AC9211966D01641707
S1134BE075072CF08416950614F4818101C080E3C6
S1134BF0415051093196D60111967D014017510754
S1134C0024F0D6018C936701E2CF6417750739F459
S1134C10963320F4953319F4311101C081E3F60180
S1134C208083F701822F90E2882319F091938150B9
S1134C30FBCFF701E20FF11D108280E090E029968E
S1134C40CDBFDEBFDF91CF911F910F91FF90EF9009
S1134C50DF90CF90BF90AF909F908F900895DC012C
S1134C60FC01672F71917723E1F7329704C07C919F
S1134C706D9370836291AE17BF07C8F30895F894DB
S1054C80FFCF60
S1134C8249444C4500546D72205376630050693D8B
S1134C92257300497465726174696F6E733D25737F
S1134CA2004475726174696F6E3A256400537461CD
S1134CB272742043616C63756C6174696F6E005029
S1134CC2617573652043616C63756C6174696F6EA1
S1134CD2005265736574004D7954696D65720043C1
S1134CE26F756E745F54696D6500496E74657266A2
S1134CF26163650062745461736B0050692043619F
S1134D026C63756C6174696F6E2056312E30006469
S10D4D1269737055706461746500E4
S9030000FC
